{
  "_format": "hh-sol-artifact-1",
  "contractName": "Loan",
  "sourceName": "contracts/Loan.sol",
  "abi": [
    {
      "inputs": [
        {
          "internalType": "string",
          "name": "",
          "type": "string"
        },
        {
          "internalType": "uint256",
          "name": "",
          "type": "uint256"
        }
      ],
      "name": "Track",
      "outputs": [
        {
          "internalType": "string",
          "name": "Loan_Approver_Prayas_id",
          "type": "string"
        },
        {
          "internalType": "uint256",
          "name": "Total_Loan_Amount",
          "type": "uint256"
        },
        {
          "internalType": "uint256",
          "name": "Interest_Rate",
          "type": "uint256"
        },
        {
          "internalType": "uint256",
          "name": "Timestamp",
          "type": "uint256"
        },
        {
          "internalType": "enum Loan.Installment_Status",
          "name": "Status",
          "type": "uint8"
        }
      ],
      "stateMutability": "view",
      "type": "function"
    },
    {
      "inputs": [
        {
          "internalType": "string",
          "name": "_applicationId",
          "type": "string"
        },
        {
          "internalType": "string",
          "name": "_Loan_Approver_Prayas_id",
          "type": "string"
        },
        {
          "internalType": "uint256",
          "name": "_Total_Loan_Amount",
          "type": "uint256"
        },
        {
          "internalType": "string[]",
          "name": "_Prayas_id_Farmers",
          "type": "string[]"
        },
        {
          "internalType": "uint256[]",
          "name": "_Individual_Amount",
          "type": "uint256[]"
        },
        {
          "internalType": "uint256",
          "name": "_Interest_Rate",
          "type": "uint256"
        }
      ],
      "name": "add_data",
      "outputs": [],
      "stateMutability": "nonpayable",
      "type": "function"
    },
    {
      "inputs": [
        {
          "internalType": "string",
          "name": "_applicationId",
          "type": "string"
        }
      ],
      "name": "getCurrentStatus",
      "outputs": [
        {
          "internalType": "enum Loan.Installment_Status",
          "name": "",
          "type": "uint8"
        }
      ],
      "stateMutability": "view",
      "type": "function"
    },
    {
      "inputs": [
        {
          "internalType": "string",
          "name": "_applicationId",
          "type": "string"
        }
      ],
      "name": "get_data_by_id",
      "outputs": [
        {
          "components": [
            {
              "internalType": "string",
              "name": "Loan_Approver_Prayas_id",
              "type": "string"
            },
            {
              "internalType": "uint256",
              "name": "Total_Loan_Amount",
              "type": "uint256"
            },
            {
              "internalType": "string[]",
              "name": "Prayas_id_Farmers",
              "type": "string[]"
            },
            {
              "internalType": "uint256[]",
              "name": "Individual_Amount",
              "type": "uint256[]"
            },
            {
              "internalType": "uint256",
              "name": "Interest_Rate",
              "type": "uint256"
            },
            {
              "internalType": "uint256",
              "name": "Timestamp",
              "type": "uint256"
            },
            {
              "internalType": "enum Loan.Installment_Status",
              "name": "Status",
              "type": "uint8"
            }
          ],
          "internalType": "struct Loan.LoanDetails[]",
          "name": "",
          "type": "tuple[]"
        }
      ],
      "stateMutability": "view",
      "type": "function"
    },
    {
      "inputs": [
        {
          "internalType": "string",
          "name": "_applicationId",
          "type": "string"
        }
      ],
      "name": "updateStatus_Installment",
      "outputs": [
        {
          "internalType": "enum Loan.Installment_Status",
          "name": "updatedStatus",
          "type": "uint8"
        }
      ],
      "stateMutability": "nonpayable",
      "type": "function"
    }
  ],
  "bytecode": "0x608060405234801561001057600080fd5b50611cd3806100206000396000f3fe608060405234801561001057600080fd5b50600436106100575760003560e01c80632839b2dd1461005c5780637be1bb1b146100905780638ace5a8f146100c0578063c55bcc19146100dc578063d7cf440b1461010c575b600080fd5b61007660048036038101906100719190610fb0565b61013c565b604051610087959493929190611111565b60405180910390f35b6100aa60048036038101906100a5919061116b565b61023a565b6040516100b791906111b4565b60405180910390f35b6100da60048036038101906100d59190611378565b6102ee565b005b6100f660048036038101906100f1919061116b565b610472565b60405161010391906111b4565b60405180910390f35b6101266004803603810190610121919061116b565b6107be565b60405161013391906117ba565b60405180910390f35b600082805160208101820180518482526020830160208501208183528095505050505050818154811061016e57600080fd5b9060005260206000209060070201600091509150508060000180546101929061180b565b80601f01602080910402602001604051908101604052809291908181526020018280546101be9061180b565b801561020b5780601f106101e05761010080835404028352916020019161020b565b820191906000526020600020905b8154815290600101906020018083116101ee57829003601f168201915b5050505050908060010154908060040154908060050154908060060160009054906101000a900460ff16905085565b60008060008360405161024d9190611878565b9081526020016040518091039020905060008180549050116102a4576040517f08c379a000000000000000000000000000000000000000000000000000000000815260040161029b90611901565b60405180910390fd5b80600182805490506102b69190611950565b815481106102c7576102c6611984565b5b906000526020600020906007020160060160009054906101000a900460ff16915050919050565b6102f786610a57565b15610337576040517f08c379a000000000000000000000000000000000000000000000000000000000815260040161032e906119ff565b60405180910390fd5b60006040518060e001604052808781526020018681526020018581526020018481526020018381526020014281526020016000600681111561037c5761037b61109a565b5b81525090506000876040516103919190611878565b908152602001604051809103902081908060018154018082558091505060019003906000526020600020906007020160009091909190915060008201518160000190816103de9190611bcb565b50602082015181600101556040820151816002019080519060200190610405929190610cf9565b506060820151816003019080519060200190610422929190610d52565b506080820151816004015560a0820151816005015560c08201518160060160006101000a81548160ff021916908360068111156104625761046161109a565b5b0217905550505050505050505050565b6000806000836040516104859190611878565b9081526020016040518091039020905060008180549050116104dc576040517f08c379a00000000000000000000000000000000000000000000000000000000081526004016104d390611901565b60405180910390fd5b600081600183805490506104f09190611950565b8154811061050157610500611984565b5b90600052602060002090600702019050600060068111156105255761052461109a565b5b8160060160009054906101000a900460ff1660068111156105495761054861109a565b5b036105805760018160060160006101000a81548160ff021916908360068111156105765761057561109a565b5b02179055506107ac565b600160068111156105945761059361109a565b5b8160060160009054906101000a900460ff1660068111156105b8576105b761109a565b5b036105ef5760028160060160006101000a81548160ff021916908360068111156105e5576105e461109a565b5b02179055506107ab565b600260068111156106035761060261109a565b5b8160060160009054906101000a900460ff1660068111156106275761062661109a565b5b0361065e5760038160060160006101000a81548160ff021916908360068111156106545761065361109a565b5b02179055506107aa565b600360068111156106725761067161109a565b5b8160060160009054906101000a900460ff1660068111156106965761069561109a565b5b036106cd5760048160060160006101000a81548160ff021916908360068111156106c3576106c261109a565b5b02179055506107a9565b600460068111156106e1576106e061109a565b5b8160060160009054906101000a900460ff1660068111156107055761070461109a565b5b0361073c5760058160060160006101000a81548160ff021916908360068111156107325761073161109a565b5b02179055506107a8565b600560068111156107505761074f61109a565b5b8160060160009054906101000a900460ff1660068111156107745761077361109a565b5b036107a75760068160060160006101000a81548160ff021916908360068111156107a1576107a061109a565b5b02179055505b5b5b5b5b5b6107b58461023a565b92505050919050565b60606000826040516107d09190611878565b9081526020016040518091039020805480602002602001604051908101604052809291908181526020016000905b82821015610a4c57838290600052602060002090600702016040518060e00160405290816000820180546108319061180b565b80601f016020809104026020016040519081016040528092919081815260200182805461085d9061180b565b80156108aa5780601f1061087f576101008083540402835291602001916108aa565b820191906000526020600020905b81548152906001019060200180831161088d57829003601f168201915b505050505081526020016001820154815260200160028201805480602002602001604051908101604052809291908181526020016000905b8282101561098e5783829060005260206000200180546109019061180b565b80601f016020809104026020016040519081016040528092919081815260200182805461092d9061180b565b801561097a5780601f1061094f5761010080835404028352916020019161097a565b820191906000526020600020905b81548152906001019060200180831161095d57829003601f168201915b5050505050815260200190600101906108e2565b505050508152602001600382018054806020026020016040519081016040528092919081815260200182805480156109e557602002820191906000526020600020905b8154815260200190600101908083116109d1575b5050505050815260200160048201548152602001600582015481526020016006820160009054906101000a900460ff166006811115610a2757610a2661109a565b5b6006811115610a3957610a3861109a565b5b81525050815260200190600101906107fe565b505050509050919050565b600080600083604051610a6a9190611878565b9081526020016040518091039020805480602002602001604051908101604052809291908181526020016000905b82821015610ce657838290600052602060002090600702016040518060e0016040529081600082018054610acb9061180b565b80601f0160208091040260200160405190810160405280929190818152602001828054610af79061180b565b8015610b445780601f10610b1957610100808354040283529160200191610b44565b820191906000526020600020905b815481529060010190602001808311610b2757829003601f168201915b505050505081526020016001820154815260200160028201805480602002602001604051908101604052809291908181526020016000905b82821015610c28578382906000526020600020018054610b9b9061180b565b80601f0160208091040260200160405190810160405280929190818152602001828054610bc79061180b565b8015610c145780601f10610be957610100808354040283529160200191610c14565b820191906000526020600020905b815481529060010190602001808311610bf757829003601f168201915b505050505081526020019060010190610b7c565b50505050815260200160038201805480602002602001604051908101604052809291908181526020018280548015610c7f57602002820191906000526020600020905b815481526020019060010190808311610c6b575b5050505050815260200160048201548152602001600582015481526020016006820160009054906101000a900460ff166006811115610cc157610cc061109a565b5b6006811115610cd357610cd261109a565b5b8152505081526020019060010190610a98565b5050505090506000815111915050919050565b828054828255906000526020600020908101928215610d41579160200282015b82811115610d40578251829081610d309190611bcb565b5091602001919060010190610d19565b5b509050610d4e9190610d9f565b5090565b828054828255906000526020600020908101928215610d8e579160200282015b82811115610d8d578251825591602001919060010190610d72565b5b509050610d9b9190610dc3565b5090565b5b80821115610dbf5760008181610db69190610de0565b50600101610da0565b5090565b5b80821115610ddc576000816000905550600101610dc4565b5090565b508054610dec9061180b565b6000825580601f10610dfe5750610e1d565b601f016020900490600052602060002090810190610e1c9190610dc3565b5b50565b6000604051905090565b600080fd5b600080fd5b600080fd5b600080fd5b6000601f19601f8301169050919050565b7f4e487b7100000000000000000000000000000000000000000000000000000000600052604160045260246000fd5b610e8782610e3e565b810181811067ffffffffffffffff82111715610ea657610ea5610e4f565b5b80604052505050565b6000610eb9610e20565b9050610ec58282610e7e565b919050565b600067ffffffffffffffff821115610ee557610ee4610e4f565b5b610eee82610e3e565b9050602081019050919050565b82818337600083830152505050565b6000610f1d610f1884610eca565b610eaf565b905082815260208101848484011115610f3957610f38610e39565b5b610f44848285610efb565b509392505050565b600082601f830112610f6157610f60610e34565b5b8135610f71848260208601610f0a565b91505092915050565b6000819050919050565b610f8d81610f7a565b8114610f9857600080fd5b50565b600081359050610faa81610f84565b92915050565b60008060408385031215610fc757610fc6610e2a565b5b600083013567ffffffffffffffff811115610fe557610fe4610e2f565b5b610ff185828601610f4c565b925050602061100285828601610f9b565b9150509250929050565b600081519050919050565b600082825260208201905092915050565b60005b8381101561104657808201518184015260208101905061102b565b60008484015250505050565b600061105d8261100c565b6110678185611017565b9350611077818560208601611028565b61108081610e3e565b840191505092915050565b61109481610f7a565b82525050565b7f4e487b7100000000000000000000000000000000000000000000000000000000600052602160045260246000fd5b600781106110da576110d961109a565b5b50565b60008190506110eb826110c9565b919050565b60006110fb826110dd565b9050919050565b61110b816110f0565b82525050565b600060a082019050818103600083015261112b8188611052565b905061113a602083018761108b565b611147604083018661108b565b611154606083018561108b565b6111616080830184611102565b9695505050505050565b60006020828403121561118157611180610e2a565b5b600082013567ffffffffffffffff81111561119f5761119e610e2f565b5b6111ab84828501610f4c565b91505092915050565b60006020820190506111c96000830184611102565b92915050565b600067ffffffffffffffff8211156111ea576111e9610e4f565b5b602082029050602081019050919050565b600080fd5b600061121361120e846111cf565b610eaf565b90508083825260208201905060208402830185811115611236576112356111fb565b5b835b8181101561127d57803567ffffffffffffffff81111561125b5761125a610e34565b5b8086016112688982610f4c565b85526020850194505050602081019050611238565b5050509392505050565b600082601f83011261129c5761129b610e34565b5b81356112ac848260208601611200565b91505092915050565b600067ffffffffffffffff8211156112d0576112cf610e4f565b5b602082029050602081019050919050565b60006112f46112ef846112b5565b610eaf565b90508083825260208201905060208402830185811115611317576113166111fb565b5b835b81811015611340578061132c8882610f9b565b845260208401935050602081019050611319565b5050509392505050565b600082601f83011261135f5761135e610e34565b5b813561136f8482602086016112e1565b91505092915050565b60008060008060008060c0878903121561139557611394610e2a565b5b600087013567ffffffffffffffff8111156113b3576113b2610e2f565b5b6113bf89828a01610f4c565b965050602087013567ffffffffffffffff8111156113e0576113df610e2f565b5b6113ec89828a01610f4c565b95505060406113fd89828a01610f9b565b945050606087013567ffffffffffffffff81111561141e5761141d610e2f565b5b61142a89828a01611287565b935050608087013567ffffffffffffffff81111561144b5761144a610e2f565b5b61145789828a0161134a565b92505060a061146889828a01610f9b565b9150509295509295509295565b600081519050919050565b600082825260208201905092915050565b6000819050602082019050919050565b600082825260208201905092915050565b60006114bd8261100c565b6114c781856114a1565b93506114d7818560208601611028565b6114e081610e3e565b840191505092915050565b6114f481610f7a565b82525050565b600081519050919050565b600082825260208201905092915050565b6000819050602082019050919050565b600061153283836114b2565b905092915050565b6000602082019050919050565b6000611552826114fa565b61155c8185611505565b93508360208202850161156e85611516565b8060005b858110156115aa578484038952815161158b8582611526565b94506115968361153a565b925060208a01995050600181019050611572565b50829750879550505050505092915050565b600081519050919050565b600082825260208201905092915050565b6000819050602082019050919050565b60006115f483836114eb565b60208301905092915050565b6000602082019050919050565b6000611618826115bc565b61162281856115c7565b935061162d836115d8565b8060005b8381101561165e57815161164588826115e8565b975061165083611600565b925050600181019050611631565b5085935050505092915050565b611674816110f0565b82525050565b600060e083016000830151848203600086015261169782826114b2565b91505060208301516116ac60208601826114eb565b50604083015184820360408601526116c48282611547565b915050606083015184820360608601526116de828261160d565b91505060808301516116f360808601826114eb565b5060a083015161170660a08601826114eb565b5060c083015161171960c086018261166b565b508091505092915050565b6000611730838361167a565b905092915050565b6000602082019050919050565b600061175082611475565b61175a8185611480565b93508360208202850161176c85611491565b8060005b858110156117a857848403895281516117898582611724565b945061179483611738565b925060208a01995050600181019050611770565b50829750879550505050505092915050565b600060208201905081810360008301526117d48184611745565b905092915050565b7f4e487b7100000000000000000000000000000000000000000000000000000000600052602260045260246000fd5b6000600282049050600182168061182357607f821691505b602082108103611836576118356117dc565b5b50919050565b600081905092915050565b60006118528261100c565b61185c818561183c565b935061186c818560208601611028565b80840191505092915050565b60006118848284611847565b915081905092915050565b7f4e6f206c6f616e206461746120666f756e6420666f722074686973206170706c60008201527f69636174696f6e20494400000000000000000000000000000000000000000000602082015250565b60006118eb602a83611017565b91506118f68261188f565b604082019050919050565b6000602082019050818103600083015261191a816118de565b9050919050565b7f4e487b7100000000000000000000000000000000000000000000000000000000600052601160045260246000fd5b600061195b82610f7a565b915061196683610f7a565b925082820390508181111561197e5761197d611921565b5b92915050565b7f4e487b7100000000000000000000000000000000000000000000000000000000600052603260045260246000fd5b7f4170706c69636174696f6e20494420616c726561647920657869737473000000600082015250565b60006119e9601d83611017565b91506119f4826119b3565b602082019050919050565b60006020820190508181036000830152611a18816119dc565b9050919050565b60008190508160005260206000209050919050565b60006020601f8301049050919050565b600082821b905092915050565b600060088302611a817fffffffffffffffffffffffffffffffffffffffffffffffffffffffffffffffff82611a44565b611a8b8683611a44565b95508019841693508086168417925050509392505050565b6000819050919050565b6000611ac8611ac3611abe84610f7a565b611aa3565b610f7a565b9050919050565b6000819050919050565b611ae283611aad565b611af6611aee82611acf565b848454611a51565b825550505050565b600090565b611b0b611afe565b611b16818484611ad9565b505050565b5b81811015611b3a57611b2f600082611b03565b600181019050611b1c565b5050565b601f821115611b7f57611b5081611a1f565b611b5984611a34565b81016020851015611b68578190505b611b7c611b7485611a34565b830182611b1b565b50505b505050565b600082821c905092915050565b6000611ba260001984600802611b84565b1980831691505092915050565b6000611bbb8383611b91565b9150826002028217905092915050565b611bd48261100c565b67ffffffffffffffff811115611bed57611bec610e4f565b5b611bf7825461180b565b611c02828285611b3e565b600060209050601f831160018114611c355760008415611c23578287015190505b611c2d8582611baf565b865550611c95565b601f198416611c4386611a1f565b60005b82811015611c6b57848901518255600182019150602085019450602081019050611c46565b86831015611c885784890151611c84601f891682611b91565b8355505b6001600288020188555050505b50505050505056fea26469706673582212202ee8a586f0e7aa30e53011261cbeb182eef89c0e91e8a064758ae72ebfd67b0d64736f6c63430008130033",
  "linkReferences": {},
  "deployedLinkReferences": {}
}